:100000000C9434000C9456000C9467000C94460039
:100010000C9446000C9446000C9446000C94460048
:100020000C9446000C9446000C9446000C94460038
:100030000C9446000C9446000C9446000C94460028
:100040000C9446000C9446000C9446000C94460018
:100050000C9446000C9446000C9446000C94460008
:100060000C9446000C94460011241FBECFEFD8E03C
:10007000DEBFCDBF21E0A0E0B1E001C01D92A23003
:10008000B207E1F70E9448000C949E000C94000017
:100090008FE384B980EC8AB98BB18C608BB98AE02C
:1000A0008093690083E08DBB7894FFCF1F920F92FD
:1000B0000FB60F9211248F93809101018F5F80936F
:1000C00001018F910F900FBE0F901F9018951F92F6
:1000D0000F920FB60F9211242F933F938F939F93FC
:1000E0009091000181E089278093000180910001B7
:1000F000882399F095B18091010186958695892B89
:1001000085B92BB19091010130E4939FC001112476
:10011000822B8BB91092010108C085B1807C85B912
:100120008BB18F738BB9109201019F918F913F9189
:100130002F910F900FBE0F901F901895F894FFCF3E
:00000001FF
