S01600005265616374696F6E2074696D65722E7372656398
S11300000C9434000C9476000C94DB000C94510096
S11300100C9451000C9451000C9451000C94510018
S11300200C9451000C9451000C9451000C94510008
S11300300C9451000C94C9000C9451000C94510080
S11300400C9451000C9451000C9451000C945100E8
S11300500C9451000C9451000C9451000C945100D8
S11300600C9451000C94510011241FBECFEFD8E022
S1130070DEBFCDBF21E0A4E0B1E001C01D92A830F5
S1130080B207E1F711E0A0E0B1E0EAE7F7E002C06F
S113009005900D92A430B107D9F70E9453000C9437
S11300A0BB030C94000084B1876284B98AB1837F56
S11300B08AB98BB18C608BB9E9E6F0E08081807FEE
S11300C08A6080838DB383608DBB7894E1E8F0E02F
S11300D08081887F856080831092850010928400DF
S11300E085B5887F856085BD16BCFFCF1F920F92B2
S11300F00FB60F9211242F933F934F935F936F93F7
S11301007F938F939F93AF93BF93EF93FF9315B810
S113011086B590E00E944D030E9448036AE070E0B7
S11301200E94D4020196909305018093040160918A
S1130130040170910501072E000C880B990B0E9495
S1130140DB0120E034E244E755E40E9467020E94A8
S1130150A301719561957109709385006093840082
S113016086B3816086BBEFE6F0E0808181608083A6
S1130170FF91EF91BF91AF919F918F917F916F917B
S11301805F914F913F912F910F900FBE0F901F9051
S113019018951F920F920FB60F9211248F9385B169
S11301A0806285B986B3816086BB8F910F900FBE44
S11301B00F901F9018951F920F920FB60F92112453
S11301C02F933F934F935F936F937F938F939F935B
S11301D0AF93BF93EF93FF93609184007091850078
S11301E080E090E00E94D90120E034E244E755E445
S11301F00E9431010E94A3017093070160930601DC
S113020085B1887D85B98091060190910701039796
S113021024F085B1846085B90EC080910601909167
S113022007011816190624F085B1816085B903C049
S113023085B1826085B9EFE6F0E080818E7F8083AE
S1130240FF91EF91BF91AF919F918F917F916F91AA
S11302505F914F913F912F910F900FBE0F901F9080
S113026018950E9445010C942D020E94260258F014
S11302700E941F0240F029F45F3F29F00C941602FB
S113028051110C9461020C941C020E943E0268F30A
S11302909923B1F3552391F3951B550BBB27AA273B
S11302A062177307840738F09F5F5F4F220F331F75
S11302B0441FAA1FA9F335D00E2E3AF0E0E832D03D
S11302C091505040E695001CCAF72BD0FE2F29D040
S11302D0660F771F881FBB1F261737074807AB0712
S11302E0B0E809F0BB0B802DBF01FF2793585F4F87
S11302F03AF09E3F510578F00C9416020C9461027A
S11303005F3FE4F3983ED4F3869577956795B79568
S1130310F7959F5FC9F7880F911D9695879597F973
S11303200895E1E0660F771F881FBB1F62177307EC
S11303308407BA0720F0621B730B840BBA0BEE1F01
S113034088F7E09508950E94AA016894B1110C946D
S1130350610208950E94460288F09F5798F0B92FD1
S11303609927B751B0F0E1F0660F771F881F991FE6
S11303701AF0BA95C9F714C0B13091F00E94600226
S1130380B1E008950C946002672F782F8827B85F36
S113039039F0B93FCCF3869577956795B395D9F73E
S11303A03EF490958095709561957F4F8F4F9F4F48
S11303B00895E89409C097FB3EF490958095709554
S11303C061957F4F8F4F9F4F9923A9F0F92F96E99D
S11303D0BB279395F695879577956795B795F11112
S11303E0F8CFFAF4BB0F11F460FF1BC06F5F7F4FAF
S11303F08F4F9F4F16C0882311F096E911C07723C1
S113040021F09EE8872F762F05C0662371F096E8C9
S1130410862F70E060E02AF09A95660F771F881F98
S1130420DAF7880F9695879597F9089597F99F6756
S113043080E870E060E008959FEF80EC0895002468
S11304400A941616170618060906089500240A9435
S113045012161306140605060895092E0394000CBB
S113046011F4882352F0BB0F40F4BF2B11F460FF4A
S113047004C06F5F7F4F8F4F9F4F089557FD905873
S1130480440F551F59F05F3F71F04795880F97FB54
S1130490991F61F09F3F79F087950895121613060E
S11304A01406551FF2CF4695F1DF08C0161617063D
S11304B01806991FF1CF8695710561050894089572
S11304C0E894BB2766277727CB0197F908950E9404
S11304D07A020C942D020E941F0238F00E94260218
S11304E020F0952311F00C9416020C941C02112494
S11304F00C9461020E943E0270F3959FC1F3950F24
S113050050E0551F629FF001729FBB27F00DB11D93
S1130510639FAA27F00DB11DAA1F649F6627B00D23
S1130520A11D661F829F2227B00DA11D621F739F0C
S1130530B00DA11D621F839FA00D611D221F749F1A
S11305403327A00D611D231F849F600D211D822F61
S1130550762F6A2F11249F5750409AF0F1F0882388
S11305604AF0EE0FFF1FBB1F661F771F881F9150B5
S11305705040A9F79E3F510580F00C9416020C944C
S113058061025F3FE4F3983ED4F3869577956795CF
S1130590B795F795E7959F5FC1F7FE2B880F911DDF
S11305A09695879597F9089597FB072E16F400946E
S11305B007D077FD09D00E94E80207FC05D03EF47D
S11305C0909581959F4F0895709561957F4F0895FB
S11305D0AA1BBB1B51E107C0AA1FBB1FA617B70765
S11305E010F0A61BB70B881F991F5A95A9F7809581
S11305F09095BC01CD0108958F929F92AF92BF92C6
S1130600CF92DF92EF92FF92CF93DF93EC01688158
S113061079818A819B81611571058105910521F498
S113062064E279ED8BE597E02DE133EF41E050E0B2
S11306300E94580349015A019B01AC01A7EAB1E4A5
S11306400E9477036B017C01ACEEB4EFA501940129
S11306500E948503DC01CB018C0D9D1DAE1DBF1DC9
S1130660B7FF03C00197A109B04888839983AA837F
S1130670BB839F77DF91CF91FF90EF90DF90CF9076
S1130680BF90AF909F908F9008950E94FC020895B0
S113069080E091E00E94FC020895A0E0B0E0809325
S11306A0000190930101A0930201B0930301089506
S11306B0052E97FB1EF400940E946F0357FD07D08C
S11306C00E948A0307FC03D04EF40C946F035095E8
S11306D04095309521953F4F4F4F5F4F089590952A
S11306E08095709561957F4F8F4F9F4F08950E941D
S11306F0AC03A59F900DB49F900DA49F800D911DF8
S113070011240895B7FF0C9477030E947703821B8A
S1130710930B0895A1E21A2EAA1BBB1BFD010DC069
S1130720AA1FBB1FEE1FFF1FA217B307E407F5079D
S113073020F0A21BB30BE40BF50B661F771F881F79
S1130740991F1A9469F760957095809590959B010F
S1130750AC01BD01CF010895A29FB001B39FC001B8
S1130760A39F700D811D1124911DB29F700D811DD9
S10D07701124911D0895F894FFCFA1
S107077A0100000076
S9030000FC
