S01400004175746F2D6C6967687420432E73726563CF
S11300000C9434000C943E000C943E000C943E007E
S11300100C943E000C943E000C943E000C943E0064
S11300200C943E000C943E000C943E000C943E0054
S11300300C943E000C943E000C943E000C943E0044
S11300400C943E000C943E000C943E000C943E0034
S11300500C943E000C943E000C943E000C943E0024
S11300600C943E000C943E0011241FBECFEFD8E048
S1130070DEBFCDBF0E9440000C946F000C940000C2
S113008084B1826084B987B18E7F87B9EAE7F0E0F2
S113009080818F7380648083ACE7B0E08C918F7132
S11300A08C9380818FEF8083808180688083EAE7EE
S11300B0F0E080818064808380917A0086FDFCCFAB
S11300C08091780090917900843F914020F485B12B
S11300D0826085B9ECCF85B18D7F85B9E8CFF8947E
S10500E0FFCF4C
S9030000FC
