:100000000C9434000C9449000C9449000C94490061
:100010000C9449000C9449000C9449000C9449003C
:100020000C9449000C9449000C9449000C9449002C
:100030000C9449000C9449000C9449000C9449001C
:100040000C9449000C9449000C9449000C9449000C
:100050000C9449000C9449000C9449000C944900FC
:100060000C9449000C94490011241FBECFEFD8E036
:10007000DEBFCDBF11E0A0E0B1E0E2E4F1E002C0FC
:1000800005900D92A030B107D9F70E946B000C9437
:100090009F000C9400000CC085B1880F85B92FEF2C
:1000A00083EC99E0215080409040E1F700C00000CF
:1000B0002C9BF2CF08950CC085B1869585B92FEFA2
:1000C00083EC99E0215080409040E1F700C00000AF
:1000D000289BF2CF08958FE184B98CE08AB984E03F
:1000E0008BB981E085B92FEF83EC99E021508040F6
:1000F0009040E1F700C000000E944B008FE18BB9F7
:1001000081E085B92FEF83EC99E021508040904049
:10011000E1F700C000000E944B000E945B0084E0F9
:100120008BB980E185B92FEF83EC99E021508040B5
:100130009040E1F700C000000E945B00DDCFF89422
:02014000FFCFEF
:00000001FF
